{
    "status": "success",
    "data": {
        "network": "BTC",
        "txid": "4d3ec229677ec9f6bf2a85c57c691bc648e7f4911453d3167a2e8d2fed44dc94",
        "blockhash": "000000000000000004ec466ce4732fe6f1ed1cddc2ed4b328fff5224276e3f6f",
        "confirmations": 272703,
        "time": 1456417484,
        "inputs": [
            {
                "input_no": 0,
                "value": "0.00396188",
                "address": "1LS1h8UJFgAFqRsw8WqjszBdJWDQg3hj6d",
                "type": "pubkeyhash",
                "script": "3044022062794bf1528d2fce1e008f6011dd51ebec1e43eec489e3990abc0bd348ed608502205eac9ba5a02d7b0249034946a3f8223afa1190e9ef8e5695ceb5fd497d166af701 02290a7c80fc523069635df07d5407cca242f242442f5430518aee3303e6caa9df",
                "witness": null,
                "from_output": {
                    "txid": "e8146176551fec64c091298ac5e7ae7b2d8699b167d8dfbc3d3c3f55c1609729",
                    "output_no": 1
                }
            },
            {
                "input_no": 1,
                "value": "0.01184244",
                "address": "1LS1h8UJFgAFqRsw8WqjszBdJWDQg3hj6d",
                "type": "pubkeyhash",
                "script": "3045022100e1d2359e465efd80ad3a9f8b3a293675be037158d83fb2ad0dc1194f3679902c02206c123076248102a6bcae21410120292ceaf7327229fd40713dd502b8cae2bb9701 02290a7c80fc523069635df07d5407cca242f242442f5430518aee3303e6caa9df",
                "witness": null,
                "from_output": {
                    "txid": "fbdb13ce79fbf296d498ea18ad1424ccc780777f2d8597597e2f1d9371a48e62",
                    "output_no": 1
                }
            }
        ],
        "outputs": [
            {
                "output_no": 0,
                "value": "0.01183656",
                "address": "187SRqCeXctTbfaqErNqUN5kDzv2PjHVeQ",
                "type": "pubkeyhash",
                "script": "OP_DUP OP_HASH160 4e009a42f33ba7c59e5a63ca7f43cf9005ae3296 OP_EQUALVERIFY OP_CHECKSIG"
            },
            {
                "output_no": 1,
                "value": "0.00386776",
                "address": "1LS1h8UJFgAFqRsw8WqjszBdJWDQg3hj6d",
                "type": "pubkeyhash",
                "script": "OP_DUP OP_HASH160 d5255dd1fd96e70a0ab41cc728cf5233fd2ec442 OP_EQUALVERIFY OP_CHECKSIG"
            }
        ],
        "tx_hex": "0100000002299760c1553f3c3dbcdfd867b199862d7baee7c58a2991c064ec1f55766114e8010000006a473044022062794bf1528d2fce1e008f6011dd51ebec1e43eec489e3990abc0bd348ed608502205eac9ba5a02d7b0249034946a3f8223afa1190e9ef8e5695ceb5fd497d166af7012102290a7c80fc523069635df07d5407cca242f242442f5430518aee3303e6caa9dfffffffff628ea471931d2f7e5997852d7f7780c7cc2414ad18ea98d496f2fb79ce13dbfb010000006b483045022100e1d2359e465efd80ad3a9f8b3a293675be037158d83fb2ad0dc1194f3679902c02206c123076248102a6bcae21410120292ceaf7327229fd40713dd502b8cae2bb97012102290a7c80fc523069635df07d5407cca242f242442f5430518aee3303e6caa9dfffffffff02a80f1200000000001976a9144e009a42f33ba7c59e5a63ca7f43cf9005ae329688acd8e60500000000001976a914d5255dd1fd96e70a0ab41cc728cf5233fd2ec44288ac00000000",
        "size": 373,
        "version": 1,
        "locktime": 0
    }
}